{
  "contractName": "Registry",
  "abi": [
    {
      "constant": true,
      "inputs": [
        {
          "name": "",
          "type": "address"
        },
        {
          "name": "",
          "type": "uint256"
        }
      ],
      "name": "homies",
      "outputs": [
        {
          "name": "",
          "type": "address"
        }
      ],
      "payable": false,
      "stateMutability": "view",
      "type": "function"
    },
    {
      "inputs": [],
      "payable": false,
      "stateMutability": "nonpayable",
      "type": "constructor"
    },
    {
      "constant": false,
      "inputs": [
        {
          "name": "_homie",
          "type": "address"
        }
      ],
      "name": "linkUp",
      "outputs": [],
      "payable": false,
      "stateMutability": "nonpayable",
      "type": "function"
    },
    {
      "constant": false,
      "inputs": [
        {
          "name": "_registrant",
          "type": "address"
        }
      ],
      "name": "register",
      "outputs": [],
      "payable": false,
      "stateMutability": "nonpayable",
      "type": "function"
    },
    {
      "constant": true,
      "inputs": [
        {
          "name": "_registrant",
          "type": "address"
        }
      ],
      "name": "isRegistered",
      "outputs": [
        {
          "name": "",
          "type": "bool"
        }
      ],
      "payable": false,
      "stateMutability": "view",
      "type": "function"
    }
  ],
  "bytecode": "0x608060405234801561001057600080fd5b50610534806100206000396000f300608060405260043610610062576000357c0100000000000000000000000000000000000000000000000000000000900463ffffffff1680630a8af8f7146100675780634420e486146100aa57806380698acf146100ed578063c3c5a5471461017a575b600080fd5b34801561007357600080fd5b506100a8600480360381019080803573ffffffffffffffffffffffffffffffffffffffff1690602001909291905050506101d5565b005b3480156100b657600080fd5b506100eb600480360381019080803573ffffffffffffffffffffffffffffffffffffffff16906020019092919050505061039c565b005b3480156100f957600080fd5b50610138600480360381019080803573ffffffffffffffffffffffffffffffffffffffff1690602001909291908035906020019092919050505061041c565b604051808273ffffffffffffffffffffffffffffffffffffffff1673ffffffffffffffffffffffffffffffffffffffff16815260200191505060405180910390f35b34801561018657600080fd5b506101bb600480360381019080803573ffffffffffffffffffffffffffffffffffffffff169060200190929190505050610469565b604051808215151515815260200191505060405180910390f35b3381600080600091505b600160008573ffffffffffffffffffffffffffffffffffffffff1673ffffffffffffffffffffffffffffffffffffffff168152602001908152602001600020805490508110156102e5578273ffffffffffffffffffffffffffffffffffffffff16600160008673ffffffffffffffffffffffffffffffffffffffff1673ffffffffffffffffffffffffffffffffffffffff1681526020019081526020016000208281548110151561028c57fe5b9060005260206000200160009054906101000a900473ffffffffffffffffffffffffffffffffffffffff1673ffffffffffffffffffffffffffffffffffffffff1614156102d857600191505b80806001019150506101df565b811515156102f257600080fd5b600160003373ffffffffffffffffffffffffffffffffffffffff1673ffffffffffffffffffffffffffffffffffffffff1681526020019081526020016000208590806001815401808255809150509060018203906000526020600020016000909192909190916101000a81548173ffffffffffffffffffffffffffffffffffffffff021916908373ffffffffffffffffffffffffffffffffffffffff160217905550505050505050565b806103a681610469565b1515156103b257600080fd5b60008290806001815401808255809150509060018203906000526020600020016000909192909190916101000a81548173ffffffffffffffffffffffffffffffffffffffff021916908373ffffffffffffffffffffffffffffffffffffffff160217905550505050565b60016020528160005260406000208181548110151561043757fe5b906000526020600020016000915091509054906101000a900473ffffffffffffffffffffffffffffffffffffffff1681565b6000805b6000805490508110156104fd578273ffffffffffffffffffffffffffffffffffffffff166000828154811015156104a057fe5b9060005260206000200160009054906101000a900473ffffffffffffffffffffffffffffffffffffffff1673ffffffffffffffffffffffffffffffffffffffff1614156104f05760019150610502565b808060010191505061046d565b600091505b509190505600a165627a7a723058209ba582d981e5dbda52738fb01f942c5f986c94af4f4de00ad1db51b940329b3f0029",
  "source": "pragma solidity ^0.4.23;\n\ncontract Registry {\n\t// IterableMapping.itmap homies;\n\t// IterableMapping.itmap budgets;\n\taddress[] registrants;\n\tmapping(address => address[]) public homies;\n\t//mapping(address => address) public budgets;\n\n\tconstructor() public {\n\n\t}\n\n\tmodifier areNotAlreadyHomies(address _homie1, address _homie2) { \n\t\tbool areHomies = false;\n\t\tfor(uint i; i < homies[_homie1].length; i++) {\n\t\t\tif(homies[_homie1][i] == _homie2) areHomies = true;\n\t\t}\n\t\trequire(!areHomies);\n\t\t_;\n\t}\n\n\tmodifier isNotAlreadyRegistered(address _registrant) {\n\t\trequire(!isRegistered(_registrant));\n\t\t_;\n\t}\n\n\n\tfunction linkUp(address _homie) public areNotAlreadyHomies(msg.sender, _homie) {\n\t\thomies[msg.sender].push(_homie);\n\t}\n\n\tfunction register(address _registrant) public isNotAlreadyRegistered(_registrant) {\n\t\tregistrants.push(_registrant);\n\t}\n\n\tfunction isRegistered(address _registrant) public view\n\treturns(bool) {\n\t\tfor(uint i; i < registrants.length; i++) {\n\t\t\tif(registrants[i] == _registrant) return true;\n\t\t}\n\t\treturn false;\n\t}\n}\n",
  "sourcePath": "/Users/jamesvorderbruggen/Documents/Source/Fam/src/web3/contracts/Registry.sol",
  "compiler": {
    "name": "solc",
    "version": "0.4.23+commit.124ca40d.Emscripten.clang"
  },
  "schemaVersion": "2.0.0",
  "updatedAt": "2018-05-20T21:52:49.532Z"
}