{
  "contractName": "Registry",
  "abi": [
    {
      "constant": true,
      "inputs": [
        {
          "name": "",
          "type": "address"
        },
        {
          "name": "",
          "type": "uint256"
        }
      ],
      "name": "homies",
      "outputs": [
        {
          "name": "",
          "type": "address"
        }
      ],
      "payable": false,
      "stateMutability": "view",
      "type": "function"
    },
    {
      "inputs": [],
      "payable": false,
      "stateMutability": "nonpayable",
      "type": "constructor"
    },
    {
      "constant": true,
      "inputs": [
        {
          "name": "_registrant",
          "type": "address"
        }
      ],
      "name": "isRegistered",
      "outputs": [
        {
          "name": "",
          "type": "bool"
        }
      ],
      "payable": false,
      "stateMutability": "view",
      "type": "function"
    },
    {
      "constant": true,
      "inputs": [
        {
          "name": "_homie1",
          "type": "address"
        },
        {
          "name": "_homie2",
          "type": "address"
        }
      ],
      "name": "areAlreadyHomies",
      "outputs": [
        {
          "name": "",
          "type": "bool"
        }
      ],
      "payable": false,
      "stateMutability": "view",
      "type": "function"
    },
    {
      "constant": false,
      "inputs": [
        {
          "name": "_homie",
          "type": "address"
        }
      ],
      "name": "linkUp",
      "outputs": [],
      "payable": false,
      "stateMutability": "nonpayable",
      "type": "function"
    },
    {
      "constant": false,
      "inputs": [
        {
          "name": "_registrant",
          "type": "address"
        }
      ],
      "name": "register",
      "outputs": [],
      "payable": false,
      "stateMutability": "nonpayable",
      "type": "function"
    }
  ],
  "bytecode": "0x608060405234801561001057600080fd5b506105c7806100206000396000f30060806040526004361061006d576000357c0100000000000000000000000000000000000000000000000000000000900463ffffffff1680630a8af8f7146100725780634420e486146100b557806380698acf146100f8578063a9e8875d14610185578063c3c5a54714610200575b600080fd5b34801561007e57600080fd5b506100b3600480360381019080803573ffffffffffffffffffffffffffffffffffffffff16906020019092919050505061025b565b005b3480156100c157600080fd5b506100f6600480360381019080803573ffffffffffffffffffffffffffffffffffffffff169060200190929190505050610317565b005b34801561010457600080fd5b50610143600480360381019080803573ffffffffffffffffffffffffffffffffffffffff16906020019092919080359060200190929190505050610395565b604051808273ffffffffffffffffffffffffffffffffffffffff1673ffffffffffffffffffffffffffffffffffffffff16815260200191505060405180910390f35b34801561019157600080fd5b506101e6600480360381019080803573ffffffffffffffffffffffffffffffffffffffff169060200190929190803573ffffffffffffffffffffffffffffffffffffffff1690602001909291905050506103e2565b604051808215151515815260200191505060405180910390f35b34801561020c57600080fd5b50610241600480360381019080803573ffffffffffffffffffffffffffffffffffffffff1690602001909291905050506104fc565b604051808215151515815260200191505060405180910390f35b61026533826103e2565b15151561027157600080fd5b600160003373ffffffffffffffffffffffffffffffffffffffff1673ffffffffffffffffffffffffffffffffffffffff1681526020019081526020016000208190806001815401808255809150509060018203906000526020600020016000909192909190916101000a81548173ffffffffffffffffffffffffffffffffffffffff021916908373ffffffffffffffffffffffffffffffffffffffff1602179055505050565b610320816104fc565b15151561032c57600080fd5b60008190806001815401808255809150509060018203906000526020600020016000909192909190916101000a81548173ffffffffffffffffffffffffffffffffffffffff021916908373ffffffffffffffffffffffffffffffffffffffff1602179055505050565b6001602052816000526040600020818154811015156103b057fe5b906000526020600020016000915091509054906101000a900473ffffffffffffffffffffffffffffffffffffffff1681565b60008060008091505b600160008673ffffffffffffffffffffffffffffffffffffffff1673ffffffffffffffffffffffffffffffffffffffff168152602001908152602001600020805490508110156104f1578373ffffffffffffffffffffffffffffffffffffffff16600160008773ffffffffffffffffffffffffffffffffffffffff1673ffffffffffffffffffffffffffffffffffffffff1681526020019081526020016000208281548110151561049857fe5b9060005260206000200160009054906101000a900473ffffffffffffffffffffffffffffffffffffffff1673ffffffffffffffffffffffffffffffffffffffff1614156104e457600191505b80806001019150506103eb565b819250505092915050565b6000805b600080549050811015610590578273ffffffffffffffffffffffffffffffffffffffff1660008281548110151561053357fe5b9060005260206000200160009054906101000a900473ffffffffffffffffffffffffffffffffffffffff1673ffffffffffffffffffffffffffffffffffffffff1614156105835760019150610595565b8080600101915050610500565b600091505b509190505600a165627a7a723058202efc51af342f8f377132f4bd11af3937053992b470057aa8749d9a60191074320029",
  "source": "pragma solidity ^0.4.23;\n\ncontract Registry {\n\t// IterableMapping.itmap homies;\n\t// IterableMapping.itmap budgets;\n\taddress[] registrants;\n\tmapping(address => address[]) public homies;\n\t//mapping(address => address) public budgets;\n\n\tconstructor() public {\n\n\t}\n\n\tfunction isRegistered(address _registrant) \n\tpublic view returns(bool) {\n\t\tfor(uint i; i < registrants.length; i++) {\n\t\t\tif(registrants[i] == _registrant) return true;\n\t\t}\n\t\treturn false;\n\t}\n\n\tfunction areAlreadyHomies(address _homie1, address _homie2) \n\tpublic view returns(bool) { \n\t\tbool areHomies = false;\n\t\tfor(uint i; i < homies[_homie1].length; i++) {\n\t\t\tif(homies[_homie1][i] == _homie2) areHomies = true;\n\t\t}\n\t\treturn areHomies;\n\t}\n\n\tfunction linkUp(address _homie) \n\tpublic {\n\t\trequire(!areAlreadyHomies(msg.sender, _homie));\n\t\thomies[msg.sender].push(_homie);\n\t}\n\n\tfunction register(address _registrant) \n\tpublic {\n\t\trequire(!isRegistered(_registrant));\n\t\tregistrants.push(_registrant);\n\t}\n\n\t// function leaveAccount(address _detractor) public senderIsBeneficiary(address _benefactor) {\n\t// \t//this will have to first remove the sender from all fams.\n\t// \t\t//removing a member of a fam should trigger the budget's pre-nup logic.\n\t// \t//after all pre-nups have been executed successfully...\n\t// \t//remove it from the registrants array\n\t// }\n\t\n}\n",
  "sourcePath": "/Users/jamesvorderbruggen/Documents/Source/Fam/src/web3/contracts/Registry.sol",
  "compiler": {
    "name": "solc",
    "version": "0.4.23+commit.124ca40d.Emscripten.clang"
  },
  "schemaVersion": "2.0.0",
  "updatedAt": "2018-06-04T02:39:30.829Z"
}